:020000040800F2
:1000000080060020D9050008F9040008FB04000858
:10001000FF040008030500080705000800000000B1
:100020000000000000000000000000000B050008B8
:100030000D050008000000000F050008110500086C
:10004000EF050008EF050008EF050008EF050008C0
:10005000EF050008EF050008EF050008EF050008B0
:10006000EF050008EF050008EF050008EF050008A0
:10007000EF050008EF050008EF050008EF05000890
:10008000EF050008EF050008EF050008EF05000880
:10009000EF050008EF050008EF050008EF05000870
:1000A000EF050008EF050008EF050008EF05000860
:1000B000EF050008EF050008EF050008EF05000850
:1000C000EF050008EF050008EF050008EF05000840
:1000D000EF050008EF050008EF050008EF05000830
:1000E000EF050008EF050008EF05000800F002F832
:1000F00000F03AF80AA090E8000C82448344AAF188
:100100000107DA4501D100F02FF8AFF2090EBAE885
:100110000F0013F0010F18BFFB1A43F0010318473B
:10012000B80F0000D80F0000103A24BF78C878C17B
:10013000FAD8520724BF30C830C144BF04680C60ED
:10014000704700000023002400250026103A28BF35
:1001500078C1FBD8520728BF30C148BF0B60704739
:100160001FB51FBD10B510BD00F0C3FD1146FFF750
:10017000F7FF00F07FF900F0E1FD03B4FFF7F2FFB5
:1001800003BC00F0E5FD0000014605E06E2200E042
:10019000521E002AFCDC491E0029F7DC704708B516
:1001A0000121AF4800F063FB40F20F10ADF80000F2
:1001B00010208DF8030003208DF802006946A9483D
:1001C00000F086FA08BD70B504460E460121A54828
:1001D00000F02BFB26B90421A24800F026FB03E027
:1001E0000421A04800F01FFB002519E014F0800F47
:1001F00004D008219B4800F016FB03E00821994831
:1002000000F013FB6006040E4FF48071954800F077
:100210000CFB4FF48071934800F005FB681CC5B2DD
:10022000082DE3DB04218F4800F0FDFA01218D4801
:1002300000F0F9FA08218B4800F0F5FA70BD70B5AE
:1002400005460C4644F0400445F080050021204658
:10025000FFF7B9FF00212846FFF7B5FF01218148CC
:1002600000F0E1FA70BD70B500210846FFF7E7FF26
:1002700000240BE0002505E001210020FFF7A3FF8B
:10028000681CC5B2542DF7DB601CC4B2062CF1DB30
:1002900070BD10B50121734800F0C5FA0221714804
:1002A00000F0C3FA0A20FFF76FFF02216D4800F04B
:1002B000BAFA6420FFF768FF00212120FFF783FFCF
:1002C00000211320FFF77FFF0021BB20FFF77BFFFA
:1002D00000212020FFF777FF00210C20FFF773FF9C
:1002E000FFF7C1FF10BD2DE9F04781460F461446C8
:1002F0005D4EA4F12000C4B204EB440006EB4006BE
:10030000002515E07819C1B24846FFF798FF4FF075
:10031000000808E016F8010B0121FFF754FF08F16F
:10032000010000F0FF08B8F1060FF3DB681CC5B24E
:10033000012DE7DBBDE8F0872DE9F04105460E46CB
:1003400014460027B84619E014F8012B3146284618
:10035000FFF7C9FFA81DC5B2781CC7B20E2F08DB76
:10036000002506F10800C6B2002708F1010000F0E0
:10037000FF08B8F1060F01DBBDE8F0812078002806
:10038000E2D100BFF8E72DE9FE43804689461646D4
:1003900000200090019002902EB93022494640463C
:1003A000FFF7A1FF2BE000240DE00A20B6FBF0F1DF
:1003B00000FB11602D49085C0DF804000A20B6FB13
:1003C000F0F6601CC4B2002EEFD100250DE01DF840
:1003D0000570601E401B1DF800000DF80500601E32
:1003E000401B0DF80070681CC5B204EBD471B5EB6E
:1003F000610FECDB6A4649464046FFF79DFFBDE8CA
:10040000FE832DE9F04107460E4615463146384633
:10041000FFF715FF00240AE005EB450104EBC101DD
:10042000134A505C0121FFF7CEFE601CC4B20C2CB5
:10043000F2DB701CC1B23846FFF701FF0C240AE062
:1004400005EB450104EBC101094A505C0121FFF7AE
:10045000BAFE601CC4B2182CF2DBBDE8F0810000CB
:1004600000023000000801405E0D0008000000207E
:10047000860F00080121042000F0D0FB00F053F8A3
:10048000FFF78DFE00F07EF8FFF703FFFFF7EBFEAE
:100490001EE014A200210846FFF74EFF0121144878
:1004A00000F052F828B91348C06880F48040114920
:1004B000C860002202211420FFF7A3FF01220221BD
:1004C0002820FFF79EFF022211463C20FFF799FFEC
:1004D000DFE701B502E00098401E00900098002878
:1004E000F9D108BD20202035343032206C696200FB
:1004F0000018014000200140704700BFFEE700BF28
:10050000FEE700BFFEE700BFFEE770477047704799
:100510007047000001B502E00098401E009000986E
:100520000028F9D108BD08B50121402000F076FB74
:1005300040F28170ADF8000048208DF80300694654
:10054000224800F0C5F808BD70B504460D4629469E
:10055000204600F04EF998B942F21070FFF7DAFF2A
:100560002946204600F045F940B900BF29462046FB
:1005700000F03FF90028F9D0002070BD0120FCE711
:100580000120FAE708B501214FF4B87000F046FBEE
:100590004FF48040ADF8000010208DF803000320D8
:1005A0008DF8020069460A4800F092F84FF40050B6
:1005B000ADF8000010208DF8030003208DF8020034
:1005C0006946044800F084F808BD000000180140A6
:1005D000002001400014014008480047FEE7FEE704
:1005E000FEE7FEE7FEE7FEE7FEE7FEE7FEE7FEE7E3
:1005F00003480449044A054B70470000ED00000819
:100600008000002080060020800200208002002060
:1006100010B50446C248844208D10121042000F0EC
:1006200017FB0021042000F013FB46E0BD48844284
:1006300008D10121082000F00BFB0021082000F068
:1006400007FB3AE0B848844208D10121102000F0AD
:10065000FFFA0021102000F0FBFA2EE0B34884429C
:1006600008D10121202000F0F3FA0021202000F021
:10067000EFFA22E0AE48844208D10121402000F088
:10068000E7FA0021402000F0E3FA16E0A94884428E
:1006900008D10121802000F0DBFA0021802000F049
:1006A000D7FA0AE0A448844207D10121801500F05E
:1006B000CFFA0021A01500F0CBFA10BD10B5012132
:1006C000084600F0C5FA0021012000F0C1FA10BD73
:1006D0002DE9F041024600250026002000230024D9
:1006E000002791F803C00CF00F0591F803C01CF02F
:1006F000100F03D091F802C04CEA050591F800C034
:10070000BCF1000F31D0146800202BE04FF0010C39
:100710000CFA00F3B1F800C00CEA03069E4220D1A7
:1007200083004FF00F0C0CFA03F7BC4305FA03FCEF
:100730004CEA040491F803C0BCF1280F06D14FF035
:10074000010C0CFA00FCC2F814C00AE091F803C0D6
:10075000BCF1480F05D14FF0010C0CFA00FCC2F8B7
:1007600010C0401C0828D1D31460B1F800C0BCF1FF
:10077000FF0F34DD546800202EE000F1080C4FF02C
:10078000010808FA0CF3B1F800C00CEA03069E4217
:1007900021D183004FF00F0C0CFA03F7BC4305FA8C
:1007A00003FC4CEA040491F803C0BCF1280F05D106
:1007B00000F1080C08FA0CF8C2F8148091F803C094
:1007C000BCF1480F07D100F1080C4FF0010808FAFE
:1007D0000CF8C2F81080401C0828CED35460BDE845
:1007E000F0814FF6FF710180022181700421C170F8
:1007F00070470246002093680B4201D0012000E0C0
:10080000002070470146886880B270470246002089
:10081000D3680B4201D0012000E000207047014660
:10082000C86880B2704701617047416170470AB182
:10083000016100E041617047C16070474FF4803250
:100840000A438261816182618269826970470246DE
:1008500000203A4B18684FF68073184040EA0210A7
:100860000843364B186070473549C8617047F0B58A
:100870000A460023002400210025304E7168C0F391
:10088000034583B200F44016B6F5401F08D121F0AD
:1008900070612A4E766826F07066284F7E6012E0FE
:1008A00000F48016B6F5801F06D1032606FA05F47B
:1008B000A14341F0706106E0460D360103FA06F6E9
:1008C000B14341F0706122B1460D360103FA06F6DC
:1008D00031431A4E7160F0BD30B500228B071C0FFA
:1008E0000F2303FA04F2154B08338C1053F824300D
:1008F0009343124C08348D1044F8253023468C1055
:1009000053F824308C07240F00FA04F423430B4CD3
:1009100008348D1044F8253030BD0A49086070470E
:1009200000080140000C014000100140001401408B
:1009300000180140001C014000200140000001405F
:1009400000002042DC002042DD48006840F0010049
:10095000DB49086008464068DA490840D8494860E1
:1009600008460068D8490840D5490860084600682C
:1009700020F4802008600846406820F4FE004860AB
:100980004FF41F0088607047CD49096821F4803119
:10099000CB4A11601146096821F480211160B0F53D
:1009A000803F03D0B0F5802F0ED106E0C44909681E
:1009B00041F48031C24A116007E0C149096841F43D
:1009C000A021BF4A116000E000BF00BF704710B512
:1009D00001460022002300204A11012A02D1B84C0E
:1009E000236806E0022A02D1B54C236A01E0B44C28
:1009F000636A01F01F02012494401C4201D00120CF
:100A000000E0002010BD38B5002000900024002533
:100A100000BF3120FFF7DBFF05460098401C009027
:100A20000098B0F5A06F01D0002DF2D03120FFF773
:100A3000CEFF08B1012400E00024204638BD014665
:100A400000209F4A106820F0F80040EAC1001060C2
:100A500070479E490860704702460020984B5868CE
:100A600020F47C1042EA01031843954B586070470C
:100A700096490866704701460020914A506820F068
:100A800003000843506070478D48406800F00C0038
:100A90007047014600208A4A506820F0F000084361
:100AA0005060704701460020854A506820F4E0609D
:100AB00008435060704701460020814A506820F486
:100AC000605040EAC1005060704729B17C4A527AB8
:100AD00002437B4B5A7204E0794A527A8243784B44
:100AE0005A7270477A490860704701460020744A7C
:100AF000506820F440400843506070470021754A18
:100B000011706F4A82F82010012802D0042808D101
:100B100003E001216F4A117004E005216D4A117054
:100B200000E000BF00BF70476B4908607047644930
:100B3000096A0143624A1162704767494439086093
:100B4000704730B500210022002400235C4D6D6801
:100B500005F00C0121B1042905D0082923D105E0B5
:100B60005E4D056022E05D4D05601FE0544D6D68EF
:100B700005F47012524D6D6805F48034022505EBC2
:100B800092421CB9564D554305600BE04C4D6D68C3
:100B900015F4003F03D0524D5543056002E04F4D20
:100BA0005543056002E04D4D056000BF00BF444D58
:100BB0006D6805F0F00109094A4D6B5C0568DD4080
:100BC00045603F4D6D6805F4E061090A454D6B5C79
:100BD0004568DD4085603A4D6D6805F46051C90A8D
:100BE000404D6B5C4568DD40C560354D6D6805F472
:100BF0004041890B3C4D6B5CC568B5FBF3F5056165
:100C000030BD29B12E4A526902432D4B5A6104E08E
:100C10002B4A526982432A4B5A61704729B1284AAC
:100C200092690243264B9A6104E0254A9269824305
:100C3000234B9A61704729B1214AD2690243204B64
:100C4000DA6104E01E4AD26982431D4BDA617047C3
:100C500029B11B4AD2680243194BDA6004E0184AF2
:100C6000D2688243164BDA60704729B1144A126980
:100C70000243134B1A6104E0114A12698243104B7C
:100C80001A61704714494039086070470F49C864B9
:100C900070470B49C87170470948406A40F080703E
:100CA00007494862704701460020054A92680A4297
:100CB00001D0012000E00020704701498872704790
:100CC000001002400000FFF8FFFFF6FE0000424265
:100CD000D8004242201002408004424200127A00B2
:100CE00000093D000B0000201B00002070477047EA
:100CF0007047754600F028F8AE4605006946534631
:100D000020F00700854618B020B5FFF771FCBDE85C
:100D100020404FF000064FF000074FF000084FF062
:100D2000000B21F00701AC46ACE8C009ACE8C009F3
:100D3000ACE8C009ACE8C0098D4670470446AFF383
:100D400000802046FFF719FA004870472000002075
:100D500001491820ABBEFEE72600020070470000E4
:100D6000000000000000002F000000000700070046
:100D700000147F147F1400242A7F2A120062640862
:100D800013230036495522500000050300000000DF
:100D90001C224100000041221C000014083E0814DF
:100DA0000008083E0808000000A0600000080808CD
:100DB0000808000060600000002010080402003EE7
:100DC0005149453E0000427F400000426151494682
:100DD000002141454B31001814127F100027454572
:100DE0004539003C4A494930000171090503003684
:100DF0004949493600064949291E00003636000097
:100E0000000056360000000814224100001414149B
:100E10001414000041221408000201510906003296
:100E20004959513E007C1211127C007F49494936D4
:100E3000003E41414122007F4141221C007F49493F
:100E40004941007F09090901003E4149497A007F73
:100E50000808087F0000417F4100002040413F0119
:100E6000007F08142241007F40404040007F020C78
:100E7000027F007F0408107F003E4141413E007F19
:100E800009090906003E4151215E007F09192946E2
:100E90000046494949310001017F0101003F4040BE
:100EA000403F001F2040201F003F4038403F00636C
:100EB000140814630007087008070061514945438E
:100EC00000007F41410000552A552A55000041414C
:100ED0007F00000402010204004040404040000046
:100EE00001020400002054545478007F48444438E0
:100EF00000384444442000384444487F0038545467
:100F0000541800087E0901020018A4A4A47C007FE4
:100F1000080404780000447D4000004080847D0087
:100F2000007F102844000000417F4000007C04182E
:100F30000478007C0804047800384444443800FCF9
:100F4000242424180018242418FC007C0804040815
:100F500000485454542000043F444020003C40408A
:100F6000207C001C2040201C003C4030403C0044C1
:100F700028102844001CA0A0A07C004464544C44C9
:100F80001414141414140A32C2321E0807E4041490
:100F90000C0004030003080403000304080011F21A
:100FA00000FE824100FE0202FE0008070809080850
:100FB000080F080909002010FC0310CF04F40454A2
:100FC0008C0000000F000201080F000003008C4598
:100FD000F55555EF455555550C000000070505071B
:100FE000050505050400007F416555CF556541FFA6
:100FF0000000040300070404050407000300202286
:101000002AB262FF62B22A22200002020100000717
:101010000000010202008884F3929292FE92929262
:101020008200000000000000070000000000000037
:1010300000FF49494949FF00000000040201000087
:101040000404070000000000FF111111111111FF2D
:101050000000000007020202020202070000FE2256
:1010600022FE04146404FF040400030101030000D1
:1010700004040700000020102C23E0202023EC10A3
:1010800020000404020100040404030000008A6A32
:10109000FF29483C007F00C4180001000704040435
:1010A000020201000000897200C05FD555D555DFEE
:1010B000000007000407040704070407040000FEFB
:1010C0000A8ABEAAABAABE0A0A00060104040403E7
:1010D0000203040404000000F810000800000020CF
:1010E000200000002801000818110008200000203E
:1010F00060060000440100083031323334353637A1
:101100003839000000000001020304010203040654
:081110000708090204060800AB
:04000005080000ED02
:00000001FF
