:020000040800F2
:10000000C809002089010008910100089301000837
:100010009501000897010008990100080000000000
:100020000000000000000000000000009B0100082C
:100030009D010008000000009F010008A1010008C8
:10004000A3010008A3010008A3010008A301000800
:10005000A3010008A3010008A3010008A3010008F0
:10006000A3010008A3010008A3010008A3010008E0
:10007000A3010008A3010008A3010008A3010008D0
:10008000A3010008A3010008A3010008A3010008C0
:10009000A3010008A3010008A3010008A3010008B0
:1000A000A3010008C51B0008A3010008A301000864
:1000B000A3010008A3010008A3010008A301000890
:1000C000A3010008A3010008A3010008A301000880
:1000D000A3010008A1200008A3010008A301000853
:1000E000A3010008A3010008A301000800F002F822
:1000F00000F03AF80AA090E8000C82448344AAF188
:100100000107DA4501D100F02FF8AFF2090EBAE885
:100110000F0013F0010F18BFFB1A43F0010318473B
:10012000B03D0000D03D0000103A24BF78C878C12F
:10013000FAD8520724BF30C830C144BF04680C60ED
:10014000704700000023002400250026103A28BF35
:1001500078C1FBD8520728BF30C148BF0B60704739
:100160001FB51FBD10B510BD00F044F81146FFF7D4
:10017000F7FF02F027FC00F062F803B4FFF7F2FF8C
:1001800003BC00F063F800000948804709480047B5
:10019000FEE7FEE7FEE7FEE7FEE7FEE7FEE7FEE737
:1001A000FEE7FEE704480549054A064B7047000094
:1001B000651B0008ED000008C8030020C8090020E6
:1001C000C8050020C805002070477047704710B56B
:1001D00000F008F8006810BD10B5044600F002F801
:1001E000046010BD00487047640300200048704759
:1001F000640300207546FFF7F9FFAE460500694627
:10020000534620F00700854618B020B5FFF7CAFF17
:10021000BDE820404FF000064FF000074FF0000807
:100220004FF0000B21F00701AC46ACE8C009ACE888
:10023000C009ACE8C009ACE8C0098D467047044667
:10024000AFF300802046FFF798FF00000149182017
:10025000ABBEFEE7260002007047000000B585B087
:100260000020009001208DF804008DF805004FF467
:10027000602002900020039003208DF81000694652
:10028000194800F05DF84FF4404001F043FA0323B1
:1002900002220521144800F07BF803231A460621A8
:1002A000114800F075F801210F4800F02AF80121EB
:1002B0000D4800F01BF80C4800F0C6F800BF0A48D3
:1002C00000F034F80028FAD1074800F0CDF800BF5C
:1002D000054800F021F80028FAD10121024800F079
:1002E000B8F805B000BD00000024014021B18268CB
:1002F00042F00102826003E0826822F00102826023
:10030000704721B1826842F48072826003E08268A3
:1003100022F4807282607047014600208A6812F0E1
:10032000040F01D0012000E00020704701460020AA
:100330008A6812F0080F01D0012000E00020704709
:1003400030B502460020002350680F4C20400D7944
:100350000C6844EA05242043506090680B4C204010
:10036000D1E902542C434D7944EA4504204390607E
:10037000D06A20F470000C7C641EE4B2234340EA8F
:100380000350D06230BD0000FFFEF0FFFDF7F1FF2B
:10039000F0B504460D4600200021092D11DDE0686E
:1003A000A5F10A0606EB4607072606FA07F1884379
:1003B000A5F10A0606EB460603FA06F10843E060DB
:1003C0000CE0206905EB4507072606FA07F188438C
:1003D00005EB450603FA06F108432061072A0FDA08
:1003E000606B561E06EB86071F2606FA07F1884348
:1003F000561E06EB860605FA06F10843606322E006
:100400000D2A0FDA206BD61F06EB86071F2606FA89
:1004100007F18843D61F06EB860605FA06F1084366
:10042000206310E0E06AA2F10D0606EB86071F26A6
:1004300006FA07F18843A2F10D0606EB860605FAD7
:1004400006F10843E062F0BD816841F00801816077
:10045000704721B1826842F4A002826003E08268A2
:1004600022F4A00282607047816841F0040181603B
:10047000704710B501F08AF900F020FA00F068F832
:10048000FFF7ECFE10BD000010B50421014800F09C
:100490001FFB10BD0018014010B50421014800F0F9
:1004A00019FB10BD0018014010B5FFF7F5FF4FF420
:1004B000487002F06BFAFFF7E7FF4FF4487002F064
:1004C00065FA10BD08B50121392001F04FF94FF44C
:1004D0008070ADF8000010208DF8030003208DF827
:1004E00002006946104800F021FA7820ADF80000BB
:1004F00010208DF8030003208DF8020069460B4898
:1005000000F014FA4FF40070ADF8000010208DF8E0
:10051000030003208DF802006946054800F006FA42
:1005200001200449086008BD00100140001401408A
:10053000000C01409481224221B1026842F0010284
:10054000026004E002684FF6FE731A4002607047D2
:1005500000B58BB0114800F027F811480090114801
:10056000019000200290032003900020049080203E
:10057000059040000690800007902020089000021F
:10058000099000200A906946044800F0B3F8012160
:100590000248FFF7D1FF0BB000BD00000800024089
:1005A0004C2401409400002001684FF6FE72114077
:1005B00001600021016041608160C1604B49884257
:1005C00008D14A490839496841F00F01474A083AB9
:1005D00051608AE045491431884208D143490839BD
:1005E000496841F0F001414A083A51607DE03F49D5
:1005F0002831884208D13D490839496841F4706181
:100600003A4A083A516070E038493C31884208D192
:1006100036490839496841F47041344A083A516012
:1006200063E032495031884208D13049083949687D
:1006300041F470212D4A083A516056E02B4964314B
:10064000884208D129490839496841F47001274A8C
:10065000083A516049E025497831884208D1234958
:100660000839496841F07061204A083A51603CE01D
:100670001F49884206D1011F096841F00F01021F7E
:10068000116032E01A491431884208D11849091F13
:10069000096841F0F001164A121F116025E0144963
:1006A0002831884208D11249091F096841F4706154
:1006B0000F4A121F116018E00D493C31884208D1E1
:1006C0000B49091F096841F47041094A121F116062
:1006D0000BE007495031884207D10549091F0968D5
:1006E00041F47021024A121F116070470800024055
:1006F0000804024010B50022026847F6F0739A43DE
:100700000C6A8B6823430C6923434C6923438C692F
:100710002343CC6923434C6A23438C6A23431A4303
:100720000260CB6843600B6883604B68C36010BD98
:100730004FF08040828C0A480088111A42F21070F3
:10074000814203DBA1F57F41FF3904E00548814286
:1007500001DA000C01440248028008B27047000030
:100760006C000020F0D8FFFF0A4802880A48008881
:10077000111A42F21070814203DBA1F57F41FF396B
:1007800004E00648814201DA000C0144024802807C
:1007900008B27047240400406E000020F0D8FFFF2C
:1007A00008B50121152000F0E1FF0121032000F030
:1007B000CDFFC020ADF8000048208DF803000320D5
:1007C0008DF8020069460A4800F0B0F80121094896
:1007D00000F036F90320ADF8000048208DF8030042
:1007E00003208DF802006946034800F09FF808BD19
:1007F00000100140000C1A000008014010B5FFF77E
:10080000CFFF40F2011081070883002008840320F5
:1008100008814FF6FF70888500200885084680898A
:1008200040F0010088810846808940F040008881BE
:100830000846008840F0010008800846008840F023
:10084000800008800846008840F00100088040F2DF
:100850000110194908800020174908310880032039
:100860001549103908804FF6FF701349143108807C
:100870000020091F088010480C38008840F0010053
:100880000D490C3908800846008840F04000088077
:1008900009481838008840F00100074918390880D5
:1008A0000846008840F0800008800846008840F034
:1008B0000100088010BD00001804004008B5602049
:1008C000ADF8000003208DF8020000208DF8030031
:1008D0006946024800F02AF808BD000000080140FF
:1008E00008B50121052000F041FF0121880300F037
:1008F0003DFF4FF40070ADF8000003208DF80200BA
:1009000018208DF803006946074800F00FF84FF4EF
:100910008060ADF8000004208DF8030069460248AD
:1009200000F004F808BD0000000801402DE9F04186
:10093000024600250026002000230024002791F80D
:1009400003C00CF00F0591F803C01CF0100F03D08A
:1009500091F802C04CEA050591F800C0BCF1000F07
:1009600031D0146800202BE04FF0010C0CFA00F39A
:10097000B1F800C00CEA03069E4220D183004FF07C
:100980000F0C0CFA03F7BC4305FA03FC4CEA040411
:1009900091F803C0BCF1280F06D14FF0010C0CFAFE
:1009A00000FCC2F814C00AE091F803C0BCF1480F83
:1009B00005D14FF0010C0CFA00FCC2F810C0401C2D
:1009C0000828D1D31460B1F800C0BCF1FF0F34DDAA
:1009D000546800202EE000F1080C4FF0010808FADE
:1009E0000CF3B1F800C00CEA03069E4221D183004B
:1009F0004FF00F0C0CFA03F7BC4305FA03FC4CEA6A
:100A0000040491F803C0BCF1280F05D100F1080CD3
:100A100008FA0CF8C2F8148091F803C0BCF1480F32
:100A200007D100F1080C4FF0010808FA0CF8C2F8E1
:100A30001080401C0828CED35460BDE8F08100002F
:100A4000F0B50A46002300240021002500F00046EE
:100A5000B6F1004F02D11D4EF16901E01B4E7168E5
:100A6000C0F3034583B200F44016B6F5401F08D129
:100A700021F07061154E766826F07066134F7E6027
:100A800012E000F48016B6F5801F06D1032606FAA0
:100A900005F4A14341F0706106E0460D360103FA0A
:100AA00006F6B14341F0706122B1460D360103FAFA
:100AB00006F6314300F00046B6F1004F02D1034E76
:100AC000F16101E0014E7160F0BD000000000140E5
:100AD000416170470161704770B504462146D020DE
:100AE00000F0A6F80546601CC1B2D02000F0A0F8C6
:100AF000064646EA052070BD10B51048406820F44F
:100B000070400E4948600846406840F4C050486054
:100B100000200B4908600B49C1F8AC014FF00200FE
:100B200001F042FF0120064908604FF0020001F089
:100B30003BFF00200349C1F8A80110BD001001408F
:100B4000A88121420080214210B500201049086090
:100B50001048406820F470400E49486008464068DC
:100B600040F4C05048604FF001000B49C1F8AC019F
:100B70004FF0020001F018FF0120054908604FF016
:100B8000020001F011FF00200349C1F8A80110BDC7
:100B9000A8812142001001400080214270B5054625
:100BA00000241F48406820F470401D4948600846F2
:100BB000406840F480404860002619E06006040E5A
:100BC0000020184908604FF0020001F0EDFE0120FE
:100BD0001549C1F8A801022001F0E6FE134800689B
:100BE00008B144F00104022001F0DEFE701CC6B220
:100BF000082EE3DB00200B4908600948406820F418
:100C00007040074948600846406840F4C05048605A
:100C100015B9FFF799FF01E0FFF76EFF204670BDA1
:100C200000100140A8812142008021422C812142F4
:100C300070B504460D4600F05BF8204600F018F849
:100C400000F0A8F8284600F013F800F0A3F800F030
:100C50004FF8611CC8B200F00BF800F09BF80020C0
:100C6000FFF79CFF064600F06BF8304670BD0000B1
:100C700070B504461A48406820F47040184948602E
:100C80000846406840F4C05048600020154908609C
:100C9000054621E014F0800F03D0012012490860BE
:100CA00002E00020104908604FEA44604FEA1064F7
:100CB0004FF0020001F078FE01200A4908604FF071
:100CC000020001F071FE00200849C1F8A8010220CD
:100CD00001F06AFE681CC5B2082DDBDB70BD0000A8
:100CE00000100140A8812142AC81214200802142B4
:100CF00010B51048406820F470400E49486008461E
:100D0000406840F4C050486001200B4908600B491E
:100D1000C1F8A8014FF0020001F046FE002006498C
:100D200008604FF0020001F03FFE00200349C1F8C7
:100D3000A80110BD00100140AC8121420080214279
:100D400010B51148406820F470400F4948600846CB
:100D5000406840F4C050486000200C4908604FF0E3
:100D6000010001F021FE00200949C1F8AC01022078
:100D700001F01AFE01200549086001F015FE01206E
:100D80000349C1F8AC0110BD00100140A881214207
:100D90000080214210B500241948406820F47040BA
:100DA000174948600846406840F480404860012088
:100DB0001449086001F0F8FD01201349C1F8A801A9
:100DC00001F0F2FD07E0601CC4B2FA2C03DDFFF76E
:100DD000B7FF012010BD0D4800680028F3D1084876
:100DE000406820F47040064948600846406840F476
:100DF000C05048604FF000000549086000BFE9E7B7
:100E000000100140AC812142008021422C8121420E
:100E1000A881214270B506460C461546FFF768FFCB
:100E20003046FFF725FFFFF7B5FF2046FFF720FF0D
:100E3000FFF7B0FF2846FFF71BFFFFF7ABFFFFF7F9
:100E40007FFF70BD07B5AAB02B98B0F900001290D3
:100E500002F0F4FD4FF07E51139002F007FE28904F
:100E60002B98B0F90200129002F0E8FD4FF07E518D
:100E7000139002F0FBFD27902B98B0F9040040423C
:100E8000129002F0DBFD4FF07E51139002F0EEFD68
:100E900026902A98B0F90000139002F0CFFD25901B
:100EA0002A98B0F90200139002F0C8FD24902A9805
:100EB000B0F90400139002F0C1FD2390FE480168D0
:100EC000006802F0D3FD1B90FC480168FA480068F6
:100ED00002F0CCFD1A90FA480168F748006802F069
:100EE000C5FD1990F5480168006802F0BFFD189033
:100EF000F4480168F148006802F0B8FD1790F04826
:100F00000168006802F0B2FD1690EE480168EC48F6
:100F1000006802F0ABFD1590EA480168006802F035
:100F2000A5FD1490DDE9271002F0A0FD129026998E
:100F300002F09CFD0021139002F04CFD01D12DB078
:100F400000BDE149259802F091FD2590DE492498E5
:100F500002F08CFD2490DC49239802F087FD239059
:100F60002699084602F082FD0E902799084602F065
:100F70007DFD0C902899084602F078FD0B900C99A5
:100F800002F0F8FB0D900E9902F0F4FB0F9002F0C6
:100F9000C5FBCDE9100101F087FECDE9120101F09A
:100FA000A9FE22902299289802F052FC28902299BA
:100FB000279802F04DFC27902299269802F048FCD1
:100FC00026901999179802F01DFE4FF0804113905A
:100FD00002F04CFD219015991A9802F0CBFB4FF0CE
:100FE0008041139002F042FD209018991B9802F066
:100FF00009FE1290169902F005FE1390149902F062
:10100000B9FB1F902099269802F030FD13901F998C
:10101000279802F02BFD1290139902F0F3FD1E9019
:101020001F99289802F022FD13902199269802F02A
:101030001DFD1290139902F0E5FD1D90219927984E
:1010400002F014FD13902099289802F00FFD1290E1
:10105000139902F0D7FD1C909C491E9802F006FDE2
:1010600013909B480168139802F084FB984908602C
:1010700096491D9802F0FAFC13909648016813985F
:1010800002F078FB9349086090491C9802F0EEFC4E
:10109000139091480168139802F06CFB8E49086028
:1010A0008E481E9902F0E2FC1290259902F062FB34
:1010B000139087480168139802F05CFB25908748DD
:1010C0001D9902F0D3FC1290249902F053FB139067
:1010D00080480168139802F04DFB24907F481C99CA
:1010E00002F0C4FC1290239902F044FB13907A485A
:1010F0000168139802F03EFB239072482399006820
:1011000002F0B4FC11906E482499006802F0AEFC25
:101110000F906A48006880F000400D90259902F019
:10112000A5FC0E900F9902F06DFD1090119902F040
:1011300069FD6649129002F099FC13905E480168BF
:10114000139802F017FB5C4908605E482499006818
:1011500002F08CFC11905A482399006802F086FC3A
:101160000F9055482599006802F080FC0E900F9969
:1011700002F000FB1090119902F044FD53491290C7
:1011800002F074FC13904D480168139802F0F2FAD3
:101190004A4908604B482599006802F067FC1190A5
:1011A00046482399006802F061FC0F904248249958
:1011B000006802F05BFC0E900F9902F023FD109086
:1011C000119902F0D7FA4149129002F04FFC1390A6
:1011D0003B480168139802F0CDFA39490860384855
:1011E0002599006802F042FC119034482499006867
:1011F00002F03CFC0F9030482399006802F036FC66
:101200000E900F9902F0B6FA1090119902F0FAFCC4
:101210002E49129002F02AFC13902A480168139874
:1012200002F0A8FA2749086008460168006802F041
:101230001DFC0E9022480168006802F017FC0C901B
:101240001E480168006802F011FC0A901A48016803
:10125000006802F00BFC09900A9902F08BFA0B90DF
:101260000C9902F087FA0D900E9902F083FA0F9014
:1012700002F054FACDE9100101F016FDCDE912019A
:1012800001F038FD22900C482299006802F0E0FA43
:101290000949086009482299006802F0D9FA07490B
:1012A000086007482299006802F0D2FA04490860F1
:1012B00004482299006813E0780000207C00002098
:1012C000800000208400002089A18B3AFAED6B3A5F
:1012D000880000208C000020900000209A9929416D
:1012E00002F0B6FA654908602A98B0F904000F9038
:1012F00002F0A4FB6249109002F0B8FB4FF080416D
:10130000119002F0B3FB5F49129002F0AFFB139013
:101310002C98806801461290139802F02BFA2C99B1
:1013200088605948006802F0F9F9CDE91001574882
:1013300001684FF0804002F099FB06905448016824
:10134000069802F093FB0890524801684FF0404025
:1013500002F08CFB069049480168069802F086FB73
:101360000790089902F006FA099002F0D7F9CDE942
:101370000A0100F0FBFF4FF06632474BCDE90C014C
:1013800001F0F2FECDE90E01DDE9102302F0DCF8F8
:10139000CDE9120101F0AEFC2C9948603F4800688D
:1013A00002F0BCF9CDE90E01394801684FF08040E8
:1013B00002F05CFB019036480168019802F056FB90
:1013C0000390344801684FF0404002F04FFB019019
:1013D00030480168019802F049FB0290039902F03D
:1013E00011FC4FF07E51049002F0C4F9059002F018
:1013F00095F9CDE90801254801684FF0804002F0D9
:1014000035FB029023480168029802F02FFB0490FC
:101410001F4801684FF0804002F028FB02901748F7
:101420000168029802F022FB0390049902F0A2F9ED
:10143000059002F073F9CDE90601DDE9082301F01A
:10144000E5F981F000414FF06632134BCDE90A0116
:1014500001F08AFECDE90C01DDE90E2302F074F8FB
:101460000F4A104BCDE9100102F06EF8CDE91201E0
:1014700001F040FC2C99086000BF60E5840000206A
:10148000F1FF793DFAED6B3A7400002078000020FE
:10149000800000207C00002066A64C4070000020E8
:1014A0009A9999999999E93F08B50121402000F04E
:1014B0005DF90C20ADF8000010208DF8030003202A
:1014C0008DF8020069460448FFF730FA0821024807
:1014D000FFF700FB08BD00000018014010B508210F
:1014E0000148FFF7F5FA10BD0018014008B50121C9
:1014F000082000F03BF94FF44060ADF800001420E4
:101500008DF8030003208DF8020069461A48FFF7A2
:101510000DFA4FF440611848FFF7DCFA4FF47A7087
:1015200001F034FA00226B21D020FFF773FC4FF456
:101530007A7001F02BFA00221921D020FFF76AFC03
:101540004FF47A7001F022FA06221A21D020FFF718
:1015500061FC4FF47A7001F019FA18221B21D02097
:10156000FFF758FC4FF47A7001F010FA08221C21A2
:10157000D020FFF74FFC08BD000C01402DE9F041E1
:1015800005460F460F2F06D01F2F2ED02F2F41D0EC
:10159000FF2F54D114E0002D02DBACB20F2600E087
:1015A000002404F1960040F6B831884201DD40F68F
:1015B000223404F1960081B2234800F0B6FC3FE0EB
:1015C000002D02DBACB20F2600E0002404F19600EF
:1015D00040F6B831884201DD40F6223404F196002D
:1015E00081B2194800F0A5FC2AE0002D02DBACB264
:1015F0000F2600E0002404F1960040F6B83188423E
:1016000001DD40F6223404F1960081B20E4800F06C
:101610008EFC15E0002D02DBACB20F2600E00024AA
:1016200004F1960040F6B831884201DD40F62234DC
:1016300004F1960081B2044800F07DFC00E000BF98
:1016400000BFBDE8F08100000008004008B54FF47D
:10165000E06000F047F825208DF8000001208DF8AB
:1016600002008DF80300684600F002F808BD000093
:1016700070B5002100230F22C4780CB3164C2468E7
:1016800004F4E064C4F5E064210AC1F10403CA4033
:10169000447804FA03F184781440214309010F4C83
:1016A0000678A155047804F01F050124AC400578A4
:1016B0006D114FF0E02606EB8505C5F8004109E005
:1016C000047804F01F050124AC40054D067876111E
:1016D00045F8264070BD00000CED00E000E400E09D
:1016E00080E100E002490143024A116070470000B6
:1016F0000000FA050CED00E010B5054C0460002474
:1017000044608460C460046201614261836110BD11
:101710000000344201460020034A506820F4404053
:1017200008435060704700000010024029B1064A8B
:1017300052690243044B5A6104E0034A52698243EE
:10174000014B5A61704700000010024029B1064A5F
:10175000D2690243044BDA6104E0034AD26982434E
:10176000014BDA61704700000010024029B1064ABF
:1017700092690243044B9A6104E0034A92698243EE
:10178000014B9A61704700000010024010B5012122
:101790004FF40170FFF7EAFF01210846FFF7C6FF8B
:1017A00010BD000030B500210022002400232D4D83
:1017B0006D6805F00C0121B1042905D0082923D159
:1017C00005E0294D056022E0274D05601FE0254D0D
:1017D0006D6805F47012234D6D6805F480340225A0
:1017E00005EB92421CB9214D554305600BE01D4DA0
:1017F0006D6815F4003F03D01C4D5543056002E0B1
:10180000194D5543056002E0174D056000BF00BF4C
:10181000144D6D6805F0F0010909154D6B5C056804
:10182000DD4045600F4D6D6805F4E061090A104D1B
:101830006B5C4568DD4085600A4D6D6805F460515C
:10184000C90A0B4D6B5C4568DD40C560054D6D6890
:1018500005F44041890B074D6B5CC568B5FBF3F59A
:10186000056130BD0010024000127A0000093D0001
:101870009A000020AA0000202DE9F0410025002652
:101880000027002070490880488088806FF02C0075
:101890006E490880002048800F2088803B20FFF799
:1018A0001BF969490988401A00B2694908803D203E
:1018B000FFF712F964494988401A00B26449488028
:1018C0003F20FFF709F960498988401A00B2604952
:1018D00088804320FFF700F95C490988401A00B26C
:1018E0005C4908804520FFF7F7F858494988401AB5
:1018F00000B2584948804720FFF7EEF853498988DD
:10190000401A00B25349888053480078002856D1C5
:101910005248007880B900204B4908804880888070
:101920004F4908604F4908604F49086001204B4902
:1019300008700020BDE8F0814548B0F90000484932
:1019400009680844464908604148B0F90200454921
:1019500009680844434908603D48B0F90400424919
:1019600009680844404908603C480078C82821D1EB
:101970003B4800683949097890FBF1F000B23249E0
:101980000880384800683549097890FBF1F000B2CA
:101990002D494880344800683049097890FBF1F0BF
:1019A00000B22949888000202C49087001202A496A
:1019B0000870BFE729480078401C2849087024486F
:1019C00000882A492A4A127821F8120020484188C2
:1019D0002848274A127820F812101D488088264986
:1019E000234A127821F8120000240DE01F4830F934
:1019F000140005441F4830F9140006441E4830F90D
:101A000014000744601CC4B20A2CEFDB0A2095FBCB
:101A1000F0F000B2194908800A2096FBF0F000B2FD
:101A200048800A2097FBF0F000B2888010480078C8
:101A3000401C0F490870084600780A2801D1002090
:101A40000870012076E700003800002032000020F6
:101A5000260000202C00002014000020240000207C
:101A6000180000201C000020200000201C02002084
:101A70001500002030020020440200203E0000201B
:101A800010B500F001F810BD0CB5002001900090D9
:101A90003248006840F480303049086000BF2F4869
:101AA000006800F4003000900198401C01900098FC
:101AB00018B90198B0F5A06FF1D12848006810F46A
:101AC000003F02D00120009001E00020009000982B
:101AD000012842D12248006840F0100020490860E7
:101AE0000846006820F0030008600846006840F0DF
:101AF0000200086019484068184948600846406874
:101B000048600846406840F4806048600846406885
:101B100020F47C1048600846406840F4E8104860B3
:101B20000846006840F08070086000BF0B480068FD
:101B300010F0007FFAD00948406820F00300074900
:101B400048600846406840F00200486000BF034813
:101B5000406800F00C000828F9D10CBD00100240CC
:101B60000020024010B51348006840F00100114900
:101B7000086008464068104908400E494860084619
:101B800000680E4908400B4908600846006820F4C8
:101B9000802008600846406820F4FE0048604FF44A
:101BA0001F008860FFF76CFF4FF000600449086079
:101BB00010BD0000001002400000FFF8FFFFF6FE1D
:101BC00008ED00E070B50121224800F0E4F800289B
:101BD0003FD00024002501211E4800F0BEF81E4819
:101BE0000078401C1C490870FEF7A2FD0446FEF771
:101BF000BBFD05461948006820441849086018488C
:101C000000682844164908601348007814281FD13A
:101C100000201149087011480068114909680844FA
:101C2000801000B20F4908800C48006801F006FFE0
:101C30000D4908600A48006801F000FF0B49086080
:101C4000002006490860064908600120084908701C
:101C500000BF70BD002C014044000020480000205F
:101C60004C000020460000205000002054000020BE
:101C70004500002030B589B005460C4601210420FE
:101C8000FFF764FD01210820FFF770FD4FF4A070FD
:101C9000ADF8200018208DF8230003208DF82200D5
:101CA00008A92448FEF742FEADF81850ADF81440DC
:101CB0000020ADF81A00ADF8160005A91E4800F086
:101CC0003DF97020ADF804000120ADF806000220B7
:101CD000ADF80C0001A9184800F078F80821164862
:101CE00000F0C0F87020ADF804000120ADF8060047
:101CF0000220ADF80C0001A90F4800F0BDF8082142
:101D00000D4800F009F900210B4800F00EF9002100
:101D1000094800F00EF90121074800F00FF80121F1
:101D2000054800F01DF80121034800F025F809B02E
:101D300030BD0000000C01400008004021B10288C5
:101D400042F08002028004E002884FF67F731A405E
:101D500002807047CA4302827047CA4302827047BA
:101D600021B1028842F00102028004E002884FF6AD
:101D7000FE731A400280704731B1B0F8442042F43B
:101D80000042A0F8442005E0B0F84420C2F30E025F
:101D9000A0F84420704730B50246002000230024FC
:101DA000158A05EA0103958905EA010413B10CB10E
:101DB000012000E0002030BD1AB183890B438381EC
:101DC00002E083898B4383817047000070B5002453
:101DD00000220023058C4FF6FE7635400584028CE8
:101DE0008388048B4FF68F752C40B51E2C400D88D0
:101DF0002C43751E2A400D892A434D882A43144DD1
:101E0000A8420BD0134DA84208D0134DA84205D0CC
:101E1000124DA84202D0124DA84213D14FF6F775C9
:101E20002A404D892A434FF6FB752A408D882A4364
:101E30004FF6FF652B404FF6FF552B408D892B4306
:101E4000CD892B4383800483CD888586028470BD31
:101E5000002C01400034014000400140004401409A
:101E6000004801400A460021018B4FF6F7731940E4
:101E7000114301837047000070B500240022002345
:101E8000058C4FF6FF6635400584028C8388848B71
:101E90004FF68F752C404FF6FC752C400D882C4367
:101EA0004FF6FF552A400D894FF6FF7606EA0525C5
:101EB0002A434D8806EA05252A43154DA84202D03B
:101EC000144DA8421DD14FF2FF752A404D894FF69F
:101ED000FF7606EA05252A434FF6FF352A408D880E
:101EE00006EA05252A434EF6FF752B404DF6FF7591
:101EF0002B408D8906EA05152B43CD8906EA051589
:101F00002B4383808483CD888587028470BD000045
:101F1000002C0140003401400A460021818B4FF61D
:101F2000F773194011438183704781867047018799
:101F3000704781877047A0F84010704700220288E0
:101F40001D4B98420ED01D4B98420BD0B0F1804FE4
:101F500008D01B4B984205D01A4B984202D01A4B1E
:101F6000984204D14FF68F731A404B881A43174B8F
:101F7000984207D0164B984204D04FF6FF431A40C0
:101F8000CB881A4302808B8883850B8803850A4B94
:101F900098420BD0094B984208D00E4B984205D07E
:101FA0000D4B984202D00D4B984201D10B7A03861B
:101FB0000123838270470000002C0140003401405F
:101FC0000004004000080040000C004000100040E9
:101FD000001400400040014000440140004801401E
:101FE0007FB504460D460121C802FFF7BFFBADF8DF
:101FF0000840681E80B2ADF804000020ADF80A0069
:10200000ADF806008DF80C0001A90F48FFF796FF08
:1020100001210D48FFF79EFE012211460A48FFF7F5
:10202000CBFE01210848FFF79BFE19208DF8000028
:1020300001208DF801008DF802008DF8030068463C
:10204000FFF716FB7FBD0000002C014010B50446D1
:10205000FEF746FC204600F003F8FFF7F7FA10BD44
:102060001FB5044600940020ADF80400ADF806004A
:10207000ADF80800ADF80C000C20ADF80A00694678
:10208000064800F091F8012240F22551034800F083
:1020900065F80121014800F02BF81FBD0038014010
:1020A00010B5002440F225510D4800F02DF8B0B1D4
:1020B0000B4800F0E5F8C4B2232C03D101200949F4
:1020C000087007E0084801780078401C064A107044
:1020D0000648445400210548034A1278815410BD33
:1020E000003801405900002058000020580200200C
:1020F00021B1828942F40052828104E082894DF646
:10210000FF731A408281704770B502460024002395
:1021100000250020A1F510666A3E00D100BFC1F382
:10212000421501F01F03012606FA03F3012D02D127
:102130009689334006E0022D02D1168A334001E031
:10214000968A33400C12012606FA04F416883440AD
:1021500013B10CB1012000E0002070BDF0B50346C2
:102160000024002600250020A1F510676A3F00D159
:1021700000BF1846C1F3421401F01F06012707FAF9
:1021800006F5012C01D10C3004E0022C01D11030F5
:1021900000E014301AB107682F43076002E00768B7
:1021A000AF430760F0BD00002DE9F04786B005465B
:1021B0000E460024A24600BFA1460027B08900B108
:1021C00000BF2F462C8A4CF6FF700440F088044371
:1021D0002C82AC894EF6F3100440B0883189084354
:1021E000718908430443AC81AC8A4FF6FF40044038
:1021F000B0890443AC8201A8FFF7D4FA1F48874294
:1022000002D1DDF810A001E0DDF80CA0A88910F4DF
:10221000004F08D00AEBCA0000EB0A1031684900F1
:10222000B0FBF1F807E00AEBCA0000EB0A103168D6
:102230008900B0FBF1F86420B8FBF0F0040120093C
:10224000642101FB1089A88910F4004F08D03220C6
:1022500000EBC900B0FBF1F000F00700044308E018
:10226000322000EB09106421B0FBF1F000F00F0008
:1022700004432C8106B0BDE8F0870000003801401F
:1022800001468888C0F308007047490050EAC12021
:1022900018BF04204A0D18BF40F0010040F2FF7241
:1022A000B2EB515F08BF40F00200012808BF0520D3
:1022B00070472DE9F0414F1E00EBC7010446D1E9FC
:1022C000000115461E4637F006020DD02A46334659
:1022D00000F04AFF7F1E04EBC703D3E9002300F0A0
:1022E0003BFD37F00602F1D1022F25D0042F13D089
:1022F000062F18BFBDE8F0812A46334600F034FFB0
:10230000D4E90A2300F028FD2A46334600F02CFFCA
:10231000D4E9082300F020FD2A46334600F024FFCC
:10232000D4E9062300F018FD2A46334600F01CFFCE
:10233000D4E9042300F010FD2A46334600F014FFD0
:10234000D4E9022300F008FD2A46334600F00CFFD2
:10235000D4E90023BDE8F04100F0FEBC024A0020B1
:10236000110701F0F6BC000001FDFFFF2DE9F04D63
:10237000904F21F0004A86B005460C46BA4530DB46
:10238000AAEB070028430CD08B48824501DC1CD106
:10239000DDB106B02846BDE8F04D4FF0010201F076
:1023A000D8BC864A864B284600F0DEFE07460E461D
:1023B000844A854B2846214600F0D6FE06B03A46B0
:1023C0003346BDE8F04D00F0C7BC0120FDF704FF27
:1023D00006B00022BDE8F04D13461046114600F04D
:1023E0006BBD7A48824542DABAF1795F0BDA28464A
:1023F000FFF74BFF042808BFFFF7B0FF284606B0E1
:102400002146BDE8F08D2A460B46104600F0ACFE92
:10241000834602466E480E460B4606217844FFF777
:1024200048FF5A46334600F09FFE804669488A4678
:102430005A46334604217844FFF73BFF5A46334659
:1024400000F092FE00223B4600F086FC02460B465E
:102450004046514600F030FD2A46234600F084FEF7
:1024600006B02A462346BDE8F04D00F075BC28466C
:1024700024F0004100223D463B4600F073FF4FF040
:10248000FF3201F066FC0646024653480F460B46F3
:1024900006217844FFF70DFF32463B4600F064FE0C
:1024A000CDE900014D4832463B4604217844FFF710
:1024B00000FF32463B4600F057FE00222B4600F05C
:1024C0004BFC834602913046394600F0EDFB8046D6
:1024D00043480D46504517DCDDE900015A46029B92
:1024E00000F0EAFC42462B4600F03EFE42462B46F8
:1024F00000F032FC012201F02CFC304A304B01F09C
:1025000023F8304A304B4CE04FF0000A52460B465D
:10251000404600F021FCCDE9031052462B46104600
:10252000194600F021FE32463B4600F01BFFDDE974
:10253000033200F0C1FC06460F46DDE900015A46B1
:10254000029B00F0B9FC83460091012230463946D7
:1025500001F0FFFB194A1A4B00F004FF06460F4634
:1025600001224046294601F0F4FB5A46009B00F048
:10257000FBFD32463B4600F0E7FF07460E460122D0
:102580005046294601F0E5FB0E4DDFF858802A46FB
:10259000434600F0E7FE3A46334600F0E3FE2A46A3
:1025A000434600F0DFFE002CD8BF81F0004106B0AA
:1025B000BDE8F08D0000F03F0000F07F075C1433B1
:1025C00026A6913C182D4454FB21F93F0000E03F22
:1025D000C0190000D61900004A1900006019000057
:1025E0003333EF3FFB21E93F2DE9F84F04460D4619
:1025F00021F0004000917449814213DC7349884204
:1026000001DC08D13CB120462946BDE8F84F4FF027
:10261000010201F09EBB6E48002DCCBF6D496E4992
:10262000BDE8F88F6D49814211DD6D498142D8BF07
:102630004FF0FF366DDD20462946FFF726FE0428C1
:1026400008BFFFF78BFE20462946BDE8F88F654995
:10265000654F25F00045814233DD6449814219DD33
:10266000002632464FF080432046294600F074FB96
:1026700080468A4601222046294601F06AFB002254
:102680003B4600F061FF4246534600F015FC04460D
:102690000D463EE001260022BA463B46204629462A
:1026A00000F05AFB80460F4600225346204629463A
:1026B00000F04AFF42463B4600F0FEFB04460D4652
:1026C00027E04B4981421BDDDFF8288102260022EA
:1026D00043462046294600F047FD00223B4600F0D5
:1026E0003BFB07468A46002243462046294600F027
:1026F0002BFF3A46534600F0DFFB04460D4608E048
:10270000032622462B4600203B4900F0D5FB044619
:102710000D4622462B461046194600F025FD8B46F5
:10272000824602460B4600F01FFD0746024633482C
:1027300088460B4606217844FFF7BBFD52465B46B0
:1027400000F012FD82462E488B463A46434605214C
:102750007844FFF7AEFD3A46434600F005FD0246D9
:102760000B46002E504659460CDA00F0F5FA224688
:102770002B4600F0F9FC01B022462B46BDE8F04F95
:1027800000F0F0BD00F0E8FA22462B4600F0ECFC29
:102790001C4A7A4402EBC603D3E9002300F0D4FEBE
:1027A00022462B4600F0D0FE174A7A4402EBC603BD
:1027B000D3E9002300F0D6FD009A002AB8BF81F0CB
:1027C0000041BDE8F88F0000000010440000F07FD9
:1027D000182D4454FB21F93FFB21F9BF0000DC3FD9
:1027E0000000203E0000F33F0000F03F0000E63F05
:1027F000008003400000F83F0000F0BF5E170000BB
:102800001C170000BA160000821600002DE9F04DDA
:102810009446CCF1000423F000464CEA0404524FE5
:1028200046EAD4749A46884621F00042BC4206D853
:10283000454240EA050442EAD474BC4204D9BDE8EA
:10284000F04D624600F088BAAAF14055A5F17F65C7
:1028500055EA0C040BD0022404EAAA74434DDFF8B5
:1028600010E144EAD87452EA000B04D00CE0BDE851
:10287000F04DFFF7B9BE002C14BF012CBDE8F08D60
:10288000022C30D0032C32D056EA0C0B0AD0BE42B8
:1028900020D1BA4209D126F0804622F08042334648
:1028A000114617E000291ADB25E0DFF8C8B0FB4429
:1028B000002C04BFDBE90001BDE8F08D012C02BF54
:1028C000DBE9000181F00041BDE8F08D022C0AD067
:1028D000032C0CD0BA4212D1B8F1000F0BDA234806
:1028E0002549BDE8F08D28462449BDE8F08D2846ED
:1028F0007146BDE8F08D1D482149BDE8F08D921B61
:1029000012153C2AC4BF19481D490EDCBAF1000F4C
:10291000BEBF12F13C0F0020014606DB624600F00C
:10292000CBFA21F00041FFF75FFE002C08BFBDE8A5
:10293000F08D012C04BF81F00041BDE8F08D114AFB
:10294000114B022C07D000F0FFFD2A46BDE8F04DE8
:102950000A4B00F0F9BD00F0F7FD2A46BDE8F04D46
:10296000064B00F0FFBC00000000F07F182D44541F
:10297000FB2109C016160000FB21F9BFFB2109400D
:10298000FB21F93F075C143326A6A13C06E04FF477
:102990007A7100BF0A00A1F10101FBD10200A0F190
:1029A000010398B2F3D17047002107E0002201E053
:1029B000531C9AB2012AFBDB4B1C99B28142F5DB16
:1029C0007047000000BF00BF00BF00BF00BF00BFD6
:1029D00000BF4FF0FF300021002807DA0A07140E6D
:1029E0009F4A00F00F031B1FD45403E00A07130E85
:1029F0009C4A135400BF4FF4A060FEF773FE41F6EB
:102A00001F411320FFF7ECFAFEF74EFDFEF766FDBF
:102A1000FEF76CFDFDF756FDFDF7F0FE002140F6D8
:102A2000B730FFF727F94FF41650FFF70FFBFDF70C
:102A300020FD8D4B00228D498D48FEF75DFE8D4BAC
:102A40008D4A8E498E48FEF757FE8E4B8E4A8F492F
:102A50008F48FEF751FEFDF727FD4FF416708D49A4
:102A600008808D4908800F218A48B0F90000FEF7E0
:102A700085FDFF218848B0F90000FEF77FFD42F296
:102A80001070FFF783FF4FF416708249088040F6FC
:102A9000B830814908800F217E48B0F90000FEF768
:102AA0006DFDFF217C48B0F90000FEF767FD41F2A3
:102AB0007C50FFF76BFF40F6B830764908804FF442
:102AC0001670754908800F217248B0F90000FEF7B2
:102AD00055FDFF217048B0F90000FEF74FFD41F2AF
:102AE0000C70FFF753FF4FF416706A49088040F6E8
:102AF000B830694908800F216648B0F90000FEF738
:102B00003DFDFF216448B0F90000FEF737FD41F6B6
:102B10005830FFF73BFF40F6B8305E4908804FF46D
:102B200016705D4908800F215A48B0F90000FEF781
:102B300025FDFF215848B0F90000FEF71FFD41F6C2
:102B40005830FFF723FF4FF416705249088040F6C3
:102B5000B830514908800F214E48B0F90000FEF707
:102B60000DFDFF214C48B0F90000FEF707FD41F6CE
:102B70005830FFF70BFF4FF416704649088040F6B7
:102B8000B830454908800F214248B0F90000FEF7EF
:102B9000F5FCFF214048B0F90000FEF7EFFC4FF4D0
:102BA000FA70FFF7F3FE59E0FEF766FE20B13B4AEC
:102BB0003B493C48FEF746F93A48B0F902009628EE
:102BC00005DA3848B0F9020010F1960F0BDC3548F1
:102BD000B0F90200B0F5966F05DC3248B0F902009A
:102BE00010F5966F06DA4FF416702A4908802A49C4
:102BF000088027E02B48B0F9020096280EDD29480E
:102C0000B0F90200B0F5966F08DA4FF4167021495A
:102C1000088040F6B8302049088013E02148B0F918
:102C2000020010F1960F0DDA1E48B0F9020010F5FF
:102C3000966F07DD40F6B830164908804FF41670DD
:102C4000154908800F211348B0F90000FEF796FCE3
:102C5000FF211148B0F90000FEF790FCA4E7000046
:102C600018ED00E000E400E00000F0410000404109
:102C7000B00000200000A0410AD7233D0000904191
:102C8000D40000200AD7A33DA69B443CCDCC4C3EAB
:102C9000F80000200000002002000020580300205F
:102CA000260000202C0000202DE9F04106460F46AA
:102CB00000F064FB04000D4618BF0120284320F0FB
:102CC0000040C0F17F6000F1E040C00F0ED0301C2A
:102CD00018BF0120384320F00040C0F17F6000F1B0
:102CE000E040C00F04BF0120FDF776FA20462946D8
:102CF000BDE8F08121F00042A2F16052B2F5801FE0
:102D000001F0004328BFD2F17F6C0BD95FEA001CB1
:102D100043EAC20242EB507018BF704728BF20F050
:102D200001007047B2F5801FBCBF184670474FEADC
:102D3000410C1CF5001F02D2084600F05EBF70B5C2
:102D400000F0BCFA00000089FFF7F6BF4FF000402A
:102D5000A0F580007047000010B591EA030F48BF4E
:102D600083F0004300F1F883841A71EB030C05D261
:102D7000121943EB0C03001B61EB0C01DFF824E19B
:102D80004FEA1154A4EB135C1EEA430F18BF9EEAEE
:102D9000445F73D023EA0E03DCF1200E21EA0451D4
:102DA00043F4801332D322FA0CFE10EB0E0023FA08
:102DB0000CFE41EB0E01CCF1200E03FA0EFE10EBDF
:102DC0000E0051F10001B1F5801FCCF1200E32D27E
:102DD00001EB045112FA0EF2BDE8104058BF7047E3
:102DE000401C38BF5FEA420218BF7047002814BF7A
:102DF00020F0010041F100014FEA410313F5001FEB
:102E000038BF7047A1F1C04100F0A6BA012A43EBD8
:102E10000302ACF1200CDCF11F0E32BF4FF0000EAC
:102E200023FA0CF310EB030041EB0451B4EB115FF8
:102E3000D0D0A1EB045101F5801149085FEA3000C0
:102E400001EB04510ED350F1000038BF12FA0EFE10
:102E500008D1BDE81040C9E7401C38BF5FEA420214
:102E6000CAD1C3E7BDE810404FEA410313F5001F84
:102E700038BF7047A1F1C04100F06EBA9EEA445FCE
:102E800008D011EA5E0FBDE8104004BF01F0004118
:102E900000207047BDE8104070B500F00FFA00BF89
:102EA00064FBBE3E0000E0FF02494FF0000000F06E
:102EB0001EBF00BF0000F87F2DE9C04130B4DFF82D
:102EC000A0C23CEA111418BF3CEA131400F0EC80D5
:102ED00081EA03051CEA111444EAD57418BF1CEA00
:102EE000131500F0C780A4EB05044FF0004545EA38
:102EF000C12145EAC32341EA505143EA525304F148
:102F00007F74994204F500344FEAC0204FEAC22290
:102F100008BF904200F09C804FEA13650FF2401604
:102F2000765D4FEA134506FB05F7C7F1807706FB90
:102F300007F74FEAD737A7FB03687642C8F5803812
:102F4000A7FB06CE38BFA8F1010807FB08E64FF043
:102F5000000EA6FB028CE6FB03CEDCF1000CCEF1EA
:102F6000004E38BFAEF1010EA6FB0C584FF0000723
:102F70004FF00005E6FB0E87A1FB08C6A0FB07CEBD
:102F800016EB0E0645F10005E1FB076515F1E04E75
:102F90007EBFA4F580345FEA46066D4116F18007D6
:102FA00045F100054FEA17274FEA066647EA05672D
:102FB000A6F1DE46B6F1805F4FEA15251FD93846E7
:102FC00024F0010C05EBC471BCF1FE6F01EB0C1198
:102FD00002D8F0BCBDE8008124425CBF01F5801E30
:102FE0009EEAC47F02D4F0BCBDE80081244238D4FC
:102FF000F0BCA1F1C041BDE8004100F0ADB94FEA1D
:10300000D22242EA43524FEAD323A7FB02864FEA79
:10301000D02040EA415007FB03661EEA0E0F4FEA3C
:10302000D12105FB026658BFA6EB0056B6EB005651
:103030004FEA520E4EEAC37E18EB0E0E56EB530EBD
:10304000BDD518EB02085E417F1C55F10005B6E7BF
:103050004FF480154FF000074FF000064FF00008C6
:10306000ADE7F0BC4FF0000001F1C04101F00041BC
:10307000BDE8008111EA0C1F0CEA131500D00CE02A
:1030800013EA0C1F00F025804FF00000F0BC81EA2D
:10309000030101F00041BDE80081F0BCBDE8004142
:1030A00081EA030100F058B9F0BCBDE8004170B5F9
:1030B00000F004F9097EFC3E00F007B881EA030144
:1030C0004FF0000001F00041704781EA030100F079
:1030D00043B9F0BCBDE800414FF000002149704702
:1030E000FFFDFBF9F7F5F4F2F0EEEDEBE9E8E6E4CD
:1030F000E3E1E0DEDDDBDAD8D7D5D4D3D1D0CFCD54
:10310000CCCBCAC8C7C6C5C4C2C1C0BFBEBDBCBB8C
:10311000BAB9B8B7B6B5B4B3B2B1B0AFAEADACAB87
:10312000AAA9A8A8A7A6A5A4A3A3A2A1A09F9F9E61
:103130009D9C9C9B9A999998979796959594939313
:10314000929191908F8F8E8E8D8C8C8B8B8A8989AA
:10315000888887878685858484838382828181802D
:103160000000FF070000F87FDFF848C170B51CEAD7
:10317000111E1EBF1CEA13159EEA0C0F95EA0C0FD8
:1031800000F06F8081EA030423EA4C134EEAD47EF8
:1031900021EA4C1141F4801143F48013AE44A1FBA9
:1031A000024CA0FB0365AEF17F7E361955EB0C0592
:1031B000A1FB034C4CF10003A0FB021C16EB0C0618
:1031C000654153F10003094218BF46F0010613F4AC
:1031D000007F0BD14FEA03314FEA0530340341EA57
:1031E000155140EA16506FF003020AE04FEAC3217E
:1031F0004FEAC520F40241EA555140EA56506FF0BB
:10320000020202EB2E4201EB025585EACE710AD092
:103210005FEA440C18BF24F0004450F1000041F173
:10322000000120EAD47040F2FE7C624500D270BDFD
:10323000A84214BF4FF080444FF04044002E08BF16
:103240000024BEF1806FA8BFA1F1C041BDE870406D
:1032500080F282804FF0000001F1C04101F0004196
:1032600070479EEA0C0F0CEA131518BF95EA0C0F75
:1032700006D04FF0000081EA030E0EF0004170BD51
:1032800000F01CF88900013E00F007B800F009B812
:103290004FEA430C5FEA5C5C08D081EA030100F06E
:1032A0005BB84FEA410C5FEA5C5CF6D14FF000007E
:1032B000014970470000FF070000F87F0EF1020E81
:1032C0002EF0030E5EF8046B364205D4012A43EB60
:1032D000030515F5001F12D8012841EB010C1CF560
:1032E000001F0CD80ED14FEAD17C15F5001F0CEB56
:1032F0004C0C0CF1020C08BF4CEBD37C04E04FF0FB
:10330000080C01E04FEAD37C0CEB4C0526FA05F6DD
:1033100006F00706B6F1040C06D20EEB860CBDE8EB
:1033200070404CF0010C6047DFE80CF0090B020222
:103330004FF000414FF00000A1F5002170BD19468B
:103340001046012851EB010418BFD4F5001484BFC6
:10335000002001F0004170BD0808A0F500114FEAFF
:103360003101704791EA030F10B581F000413FF53C
:10337000FBAC83F0004300F0EFB800002DE9F04112
:1033800001F5801CBCF5001FC0F2C3804FEA115C40
:1033900021EA0C510CF1FD0C41F480115FEA5C0C48
:1033A0000CF5C07C01D3400049413DA4890241EAAB
:1033B000905187028E0E0A0CA45D04FB04F602FBFA
:1033C00006F6C6F14046A4FB0662F60D46EA422622
:1033D00006FB06F4A4FB01235242C3F1404338BF6D
:1033E0005B1EA6FB02420024E6FB0324D20B42EA4A
:1033F0004446A6FB0623A1FB02E2A3FB07E4A418B4
:103400004FF0000252F10002E3FB01426442C2F1BC
:10341000404E38BFAEF1010EA6FB04234FF0000270
:10342000E6FB0E32A2FB03464FF00004B61954F13E
:103430000004E2FB0264A1FB06E6A4FB07E816EB2E
:1034400008064FF0000858F10008E4FB01687642D6
:10345000C8F1405838BFA8F10108A2FB06E4A3FB5D
:1034600008E52D194FF0000454F10004E2FB085464
:10347000A1FB05E6A7FB04E818EB06084FF00006E1
:1034800056F10006E1FB048618F1200556F100060E
:10349000A809A8F11B08B10908F03F08B8F10A0F04
:1034A00040EA86601CD901EB0C51BDE8F08100BFF9
:1034B000FCF5EEE8E2DDD8D3CFCBC7C3C0BDB9B6CB
:1034C000B4B1AEACA9A7A5A3A19F9D9B9A989695D0
:1034D0009392908F8D8C8B89888786858483828157
:1034E000A0FB006800FB01F208EB4208B8EB87285C
:1034F00007D5341858EB0104D5D5401C51F1000113
:10350000D1E7341A78EB0104CDD4401E71F10001EB
:10351000C9E75FEA4C0C5FEA9C5C0DD105D34FF024
:10352000000001F00041BDE8F081BDE8F04170B558
:10353000FFF7C4FE6DDBFFBEBDE8F0414FF00000B9
:10354000004970470000F87F10B591EA030F48BFAB
:1035500083F000433FF508AC841A71EB030C07D2EB
:1035600012198CF0004C43EB0C03001B61EB0C01B7
:10357000DFF8A4E14FEA1154A4EB135C1EEA430FF9
:1035800018BF9EEA445F00F0B08023EA6E03524207
:1035900021EA0451C3EB6E0338BF5B1EDCF1200E41
:1035A00025D322FA0CFE10EB0E0043FA0CFE41EB81
:1035B0000E01CCF1200E03FA0EFE10EB0E0051F1BD
:1035C0000001CCF1200E29D412FA0EF201EB0451C5
:1035D000BDE8104058BF7047401C1CBFB2F1004FFF
:1035E000704700280CBF491C20F00100704712EB07
:1035F000020E43EB030218BF4FF0010E4EEA4202E7
:10360000ACF1200CDCF11E0E54D943FA0CFE10EB89
:103610000E0051F1FF31CCF11E0ED5D50EF1010E89
:1036200012FA0EFE404141EB010101EB445C5FEAFE
:103630005C5C10D910EBDE7001EB045138BFBEF1B9
:10364000004FBDE8104018BF704700280CBF491C50
:1036500020F00100704730D24FEAD42C11F5001150
:1036600024F400641BD0B1FA81F20B3AA41AA41E10
:10367000D2F12003914030FA03F31943904001EB5B
:10368000CC71002C01EB0451BDE81040A8BF70477D
:1036900001F1C0414FF0000001F000417047B0FA65
:1036A00080F310FA03F100D110BDE41A173C48056D
:1036B000C90AE4E701EB045110BD491001EB0451C4
:1036C000BDE810404FEA300002E04FF000017047C3
:1036D0004A0008BF0042F8D0B2F5001F28BF70476B
:1036E00001F000414FF0000070479EEA445F07D0B0
:1036F00011EA5E0FBDE8104004BF002100207047B2
:10370000BDE8104070B5FFF7D9FD00BF40DFF63EC1
:1037100083F00041104670470000E0FF43004FEA8D
:10372000D30C4FEA3C0C43401FBF40070CF16051E3
:1037300013F0FE4F70471CF0006F03D100200CF017
:10374000004170470CF0004343EA507010B540EA66
:10375000CC0000F00CFA00BF000000924FEA00011C
:10376000FFF7FABD4FF000414FF00000A1F5002136
:103770007047000090EA010F48BF81F0004100F15E
:103780004882421A3CBF801A89184FEAD0524FF043
:103790007F4C1CEA410FA2EBD15318BF9CEA026F89
:1037A00000F03B804FF0004C4CEA00204CEA012135
:1037B00021FA03FC10EB0C0C1ED202F1FF325FEA7F
:1037C0001C2040EBC25038BF70471CF07F0F4FEAFF
:1037D000400C18BFBCF17F4F38BF7047C3F12003C6
:1037E000994008BF20F00100BCF17F4F38BF7047FF
:1037F000A0F1C04000F001BA4FEA3C00000A40EBE3
:10380000C25028BF1CF0FF0F4FEA400CE6D018BF93
:10381000BCF17F4F38BF7047EAE79CEA026F05D0E2
:1038200010EA5C0F08BF00F00040704710B500F0D0
:103830009EF900BF64FBBE3E401058BFC0F140403F
:10384000491058BFC1F140418142EFF300807047F9
:103850004FF47F0C1CEAD0121EBF1CEAD11392EA6F
:103860000C0F93EA0C0F00F0858090EA010F48BF1F
:1038700042F4807240F4000C41F400002CF07F41CF
:1038800020F07F4000B58142A2EB03020FF2081C3A
:10389000ACEB504EC0F100009EF800E04FEA4E0E37
:1038A00000FB0EFC38BF49004FEA2C1C02F5FA025F
:1038B0000CFB0EF34FEACE1E4FEA112C4FEAC1214A
:1038C0000EEB635E42EB22420EFB0CFC4FEA1C53F4
:1038D00000FB03114FEA112C4FEA01310EFB0CFCE7
:1038E0004FEADC4C00FB0C11C14228BF09184CEB1D
:1038F00003335DF804EB10EB410143EBC250B2F52A
:103900007C0F38BF704729D512F0F00F1CBF00F1B3
:10391000C04000F000407047008182838485868724
:1039200088898B8C8D8E8F919293959697999A9C7E
:103930009D9FA0A2A3A5A7A8AAACAEB0B2B3B5B7ED
:10394000B9BCBEC0C2C5C7C9CCCED1D4D7D9DCDFC3
:10395000E2E6E9ECF0F3F7FAFE0000004FEA400C73
:103960000CF1807CBCF17E4F28BF7047B0F1C040A5
:1039700000F043B990EA010F0CEAD11348BF42F4BA
:103980008072624538BF634507D213F47F0F16D0AB
:1039900080EA010000F00040704710B500F0E7F841
:1039A000097EFC3E00F005B880EA010000F000400E
:1039B000704780EA010000F0004000F01EB912F4E8
:1039C0007F0F04BF0248704780EA010000F015B97C
:1039D0000000C07F50EA010C00F113801CF5000FBD
:1039E00058BFBCF5000F01D48842704707D710F5C7
:1039F000000F58BF11F5000F15D488427047894257
:103A000070471CF5000F04D5BCF5000FF7D58142B7
:103A100070474FF0807C1CEB400F38BF1CEB410F10
:103A200001D28142704710B500F0A1F892244900FC
:103A30004FF000504FF08051FFF7FEBE10F00041F4
:103A400048BF4042B0FA80F310FA03F2C3F19D037D
:103A50000BD051EAC35101EB1220530638BF704717
:103A600000F1010008BF20F0010070474FF47F0C07
:103A70001CEAD0121EBF1CEAD11392EA0C0F93EA83
:103A80000C0F00F0478090EA010F48BF42F48072AB
:103A90004FF0004C4CEA00204CEA012102EB0302FB
:103AA000A0FB0113A2F50002002918BF43F0010397
:103AB0005B0028BF4FEA330342EB22425FEA132C3C
:103AC0004CEBC2502EBFBCEB436FB2F57C0F70477E
:103AD0004FEA036CBCF1004F08BF20F00100B2F5C3
:103AE0007C0F38BF70470BD582F0FF0212F5803F84
:103AF000C8BF704700F1C040D8BF00F00040704719
:103B000000F5000C5FEA4C0C48BF7047B0F1C040B4
:103B100000F073B890EA010F0CEAD11348BF42F4E9
:103B20008072624538BF634504D280EA010000F02C
:103B30000040704710B500F01AF800BF8900013E40
:103B400000F007B800F009B85FEA410C5FEA1C6CAE
:103B500008D080EA010000F050B85FEA400C5FEA4C
:103B60001C6CF6D14FF00040A0F5800070470EF1BC
:103B7000020E2EF0030E5EF8044B244204D44FEAEA
:103B80004102B2F17F4F11D84FEA4003B3F17F4FAA
:103B90000CD80ED14FEAD07CB2F17F4F0CEB4C0C1D
:103BA0000CF1020C08BF4CEBD17C04E04FF0080C88
:103BB00001E04FEAD17C0CEB4C0324FA03F404F04F
:103BC0000704B4F1040C06D20EEB840CBDE81040DF
:103BD0004CF0010C6047DFE80CF0070802024FF0E0
:103BE0000040A0F5800010BD0846420018BFD2F189
:103BF000807288BF00F0004010BDFF2141EAD05024
:103C0000C005704790EA010F48BF81F000413FF5C1
:103C1000B8AD421A04D882F00042A0EB0200114471
:103C20004FEAD0524FF07F4C1CEA410FA2EBD15328
:103C300018BF9CEA026F4AD04FF0004C4CEA0020BB
:103C40004CEA012121FA03FCB0EB0C0C0FD412F06A
:103C5000FE0F36D05FEA4C001DD5001240EBC2507B
:103C600038BF70471CF03F0F18BF70470BE0A2F140
:103C700001025FEA1C2040EBC25038BF70471CF0C5
:103C80007F0F18BF7047C3F12003994014BF401E37
:103C900020F00100704780084FEA122308BF7047E8
:103CA000B0FA80FCA2EB0C02CCF1280C60FA0CF00C
:103CB00093EA122F04BF00EBC25070474FEAC37063
:103CC0007047130A5FEADC1008BF7047F6E79CEA0A
:103CD000026F04D010EA5C0F08BF0020704710B5D7
:103CE000FFF745FF40DFF63E81F0004070470CF0E3
:103CF0000F03092B08BF082000F059800A2B0BD0B6
:103D0000082B18BF704708BF1CF0400F0AD04FF0B7
:103D100000004FF0000170471CF0400F18BF4FF03B
:103D2000004070471CF0100F08D020F0704300F0E6
:103D30007F4242EAD3014FEA4370704700F060408F
:103D400021F07F4242EA000201F07F4040EA7270B7
:103D500070474FF0FF0C4CF4E06C1CEA11531CBF91
:103D60009CEA030C9445C2BFDA4201EB0251704752
:103D7000002B0DD0BCF1000F0FD0002A01F0004144
:103D8000A4BF41F0E04141F07F614FF00000704777
:103D900001F000414FF00000704750EA01334FF04E
:103DA0009B0C18BF4CF0806C7FF47EA870471CF40D
:103DB000801F11D01CF4E02F03D06FEACC314900F2
:103DC00070474FF04050EFF3008222F0704242EA19
:103DD000000282F3008870474FF000007047000037
:103DE000555555555555C53F7D6FEB0312D6D4BF7C
:103DF0005544880E55C1C93F3B8F68B52882A4BF82
:103E000088B20175E0EF493F09F7FD0DE13D023F42
:103E10004B2D8A1C273A03C0C88A599CE52A0040CA
:103E200059018D1B6C06E6BF82922EB1C5B8B33F17
:103E30004FBB610567ACDD3F182D4454FB21E93FC2
:103E40009BF681D20B73EF3F182D4454FB21F93FB1
:103E5000E2652F227F2B7A3C075C143326A6813C37
:103E6000BDCBF07A8807703C075C143326A6913CE2
:103E7000C4EB98999999C9BF711623FEC671BCBF4E
:103E80006D9A74AFF2B0B3BF9AFDDE522DDEADBFB6
:103E90002F6C6A2C44B4A2BF0D5555555555D53FCE
:103EA000FF8300922449C23F6E204CC5CD45B73FE9
:103EB000513DD0A0660DB13FEB0D76244B7BA93F61
:103EC00011DA22E33AAD903F00000000000000004C
:103ED000F03E000800000020B000000028010008AB
:103EE000A03F0008B00000201809000044010008AD
:103EF000B80B5802000000000000000000000000A5
:103F000000000000000000000000000000000000B1
:103F100000000000000000000000000000000000A1
:103F20000000000000000000000000000000000091
:103F30000000000000000000000000000000000081
:103F40000000000000000000000000000000000071
:103F50000000000000000000000000000000000061
:103F600000000000000000000000803F0000000092
:103F70000000000000000000000000000000000041
:103F8000000000000000000000000000000001022E
:103F900003040102030406070809020406080000DE
:04000005080000ED02
:00000001FF
